{
  "contractName": "RPS_ERC20",
  "abi": [
    {
      "inputs": [],
      "stateMutability": "nonpayable",
      "type": "constructor"
    },
    {
      "anonymous": false,
      "inputs": [
        {
          "indexed": true,
          "internalType": "address",
          "name": "owner",
          "type": "address"
        },
        {
          "indexed": true,
          "internalType": "address",
          "name": "spender",
          "type": "address"
        },
        {
          "indexed": false,
          "internalType": "uint256",
          "name": "value",
          "type": "uint256"
        }
      ],
      "name": "Approval",
      "type": "event"
    },
    {
      "anonymous": false,
      "inputs": [
        {
          "indexed": true,
          "internalType": "address",
          "name": "from",
          "type": "address"
        },
        {
          "indexed": true,
          "internalType": "address",
          "name": "to",
          "type": "address"
        },
        {
          "indexed": false,
          "internalType": "uint256",
          "name": "value",
          "type": "uint256"
        }
      ],
      "name": "Transfer",
      "type": "event"
    },
    {
      "anonymous": false,
      "inputs": [
        {
          "indexed": false,
          "internalType": "uint256",
          "name": "pResult",
          "type": "uint256"
        },
        {
          "indexed": false,
          "internalType": "uint256",
          "name": "contractChoice",
          "type": "uint256"
        }
      ],
      "name": "playResult",
      "type": "event"
    },
    {
      "inputs": [
        {
          "internalType": "address",
          "name": "owner",
          "type": "address"
        },
        {
          "internalType": "address",
          "name": "spender",
          "type": "address"
        }
      ],
      "name": "allowance",
      "outputs": [
        {
          "internalType": "uint256",
          "name": "",
          "type": "uint256"
        }
      ],
      "stateMutability": "view",
      "type": "function",
      "constant": true
    },
    {
      "inputs": [
        {
          "internalType": "address",
          "name": "spender",
          "type": "address"
        },
        {
          "internalType": "uint256",
          "name": "amount",
          "type": "uint256"
        }
      ],
      "name": "approve",
      "outputs": [
        {
          "internalType": "bool",
          "name": "",
          "type": "bool"
        }
      ],
      "stateMutability": "nonpayable",
      "type": "function"
    },
    {
      "inputs": [
        {
          "internalType": "address",
          "name": "account",
          "type": "address"
        }
      ],
      "name": "balanceOf",
      "outputs": [
        {
          "internalType": "uint256",
          "name": "",
          "type": "uint256"
        }
      ],
      "stateMutability": "view",
      "type": "function",
      "constant": true
    },
    {
      "inputs": [],
      "name": "decimals",
      "outputs": [
        {
          "internalType": "uint8",
          "name": "",
          "type": "uint8"
        }
      ],
      "stateMutability": "view",
      "type": "function",
      "constant": true
    },
    {
      "inputs": [
        {
          "internalType": "address",
          "name": "spender",
          "type": "address"
        },
        {
          "internalType": "uint256",
          "name": "subtractedValue",
          "type": "uint256"
        }
      ],
      "name": "decreaseAllowance",
      "outputs": [
        {
          "internalType": "bool",
          "name": "",
          "type": "bool"
        }
      ],
      "stateMutability": "nonpayable",
      "type": "function"
    },
    {
      "inputs": [
        {
          "internalType": "address",
          "name": "spender",
          "type": "address"
        },
        {
          "internalType": "uint256",
          "name": "addedValue",
          "type": "uint256"
        }
      ],
      "name": "increaseAllowance",
      "outputs": [
        {
          "internalType": "bool",
          "name": "",
          "type": "bool"
        }
      ],
      "stateMutability": "nonpayable",
      "type": "function"
    },
    {
      "inputs": [],
      "name": "name",
      "outputs": [
        {
          "internalType": "string",
          "name": "",
          "type": "string"
        }
      ],
      "stateMutability": "view",
      "type": "function",
      "constant": true
    },
    {
      "inputs": [],
      "name": "owner",
      "outputs": [
        {
          "internalType": "address",
          "name": "",
          "type": "address"
        }
      ],
      "stateMutability": "view",
      "type": "function",
      "constant": true
    },
    {
      "inputs": [],
      "name": "symbol",
      "outputs": [
        {
          "internalType": "string",
          "name": "",
          "type": "string"
        }
      ],
      "stateMutability": "view",
      "type": "function",
      "constant": true
    },
    {
      "inputs": [],
      "name": "totalSupply",
      "outputs": [
        {
          "internalType": "uint256",
          "name": "",
          "type": "uint256"
        }
      ],
      "stateMutability": "view",
      "type": "function",
      "constant": true
    },
    {
      "inputs": [
        {
          "internalType": "address",
          "name": "recipient",
          "type": "address"
        },
        {
          "internalType": "uint256",
          "name": "amount",
          "type": "uint256"
        }
      ],
      "name": "transfer",
      "outputs": [
        {
          "internalType": "bool",
          "name": "",
          "type": "bool"
        }
      ],
      "stateMutability": "nonpayable",
      "type": "function"
    },
    {
      "inputs": [
        {
          "internalType": "address",
          "name": "sender",
          "type": "address"
        },
        {
          "internalType": "address",
          "name": "recipient",
          "type": "address"
        },
        {
          "internalType": "uint256",
          "name": "amount",
          "type": "uint256"
        }
      ],
      "name": "transferFrom",
      "outputs": [
        {
          "internalType": "bool",
          "name": "",
          "type": "bool"
        }
      ],
      "stateMutability": "nonpayable",
      "type": "function"
    },
    {
      "inputs": [
        {
          "internalType": "address",
          "name": "receiver",
          "type": "address"
        },
        {
          "internalType": "uint256",
          "name": "amount",
          "type": "uint256"
        }
      ],
      "name": "mint",
      "outputs": [],
      "stateMutability": "nonpayable",
      "type": "function"
    },
    {
      "inputs": [
        {
          "internalType": "uint256",
          "name": "userChoice",
          "type": "uint256"
        },
        {
          "internalType": "uint256",
          "name": "amount",
          "type": "uint256"
        }
      ],
      "name": "play",
      "outputs": [],
      "stateMutability": "nonpayable",
      "type": "function"
    }
  ],
  "bytecode": "0x60806040523480156200001157600080fd5b506040518060400160405280600381526020017f52505300000000000000000000000000000000000000000000000000000000008152506040518060400160405280600381526020017f525053000000000000000000000000000000000000000000000000000000000081525081600390805190602001906200009692919062000290565b508060049080519060200190620000af92919062000290565b505050620000c6306103e86200010d60201b60201c565b33600560006101000a81548173ffffffffffffffffffffffffffffffffffffffff021916908373ffffffffffffffffffffffffffffffffffffffff160217905550620004de565b600073ffffffffffffffffffffffffffffffffffffffff168273ffffffffffffffffffffffffffffffffffffffff16141562000180576040517f08c379a0000000000000000000000000000000000000000000000000000000008152600401620001779062000393565b60405180910390fd5b62000194600083836200028660201b60201c565b8060026000828254620001a89190620003e3565b92505081905550806000808473ffffffffffffffffffffffffffffffffffffffff1673ffffffffffffffffffffffffffffffffffffffff1681526020019081526020016000206000828254620001ff9190620003e3565b925050819055508173ffffffffffffffffffffffffffffffffffffffff16600073ffffffffffffffffffffffffffffffffffffffff167fddf252ad1be2c89b69c2b068fc378daa952ba7f163c4a11628f55a4df523b3ef83604051620002669190620003b5565b60405180910390a362000282600083836200028b60201b60201c565b5050565b505050565b505050565b8280546200029e906200044a565b90600052602060002090601f016020900481019282620002c257600085556200030e565b82601f10620002dd57805160ff19168380011785556200030e565b828001600101855582156200030e579182015b828111156200030d578251825591602001919060010190620002f0565b5b5090506200031d919062000321565b5090565b5b808211156200033c57600081600090555060010162000322565b5090565b60006200034f601f83620003d2565b91507f45524332303a206d696e7420746f20746865207a65726f2061646472657373006000830152602082019050919050565b6200038d8162000440565b82525050565b60006020820190508181036000830152620003ae8162000340565b9050919050565b6000602082019050620003cc600083018462000382565b92915050565b600082825260208201905092915050565b6000620003f08262000440565b9150620003fd8362000440565b9250827fffffffffffffffffffffffffffffffffffffffffffffffffffffffffffffffff0382111562000435576200043462000480565b5b828201905092915050565b6000819050919050565b600060028204905060018216806200046357607f821691505b602082108114156200047a5762000479620004af565b5b50919050565b7f4e487b7100000000000000000000000000000000000000000000000000000000600052601160045260246000fd5b7f4e487b7100000000000000000000000000000000000000000000000000000000600052602260045260246000fd5b611ac880620004ee6000396000f3fe608060405234801561001057600080fd5b50600436106100ea5760003560e01c806370a082311161008c57806395d89b411161006657806395d89b411461025f578063a457c2d71461027d578063a9059cbb146102ad578063dd62ed3e146102dd576100ea565b806370a08231146101f55780637bc49a95146102255780638da5cb5b14610241576100ea565b806323b872dd116100c857806323b872dd1461015b578063313ce5671461018b57806339509351146101a957806340c10f19146101d9576100ea565b806306fdde03146100ef578063095ea7b31461010d57806318160ddd1461013d575b600080fd5b6100f761030d565b6040516101049190611624565b60405180910390f35b610127600480360381019061012291906110ce565b61039f565b6040516101349190611609565b60405180910390f35b6101456103bd565b60405161015291906117a6565b60405180910390f35b6101756004803603810190610170919061107f565b6103c7565b6040516101829190611609565b60405180910390f35b6101936104bf565b6040516101a091906117c1565b60405180910390f35b6101c360048036038101906101be91906110ce565b6104c8565b6040516101d09190611609565b60405180910390f35b6101f360048036038101906101ee91906110ce565b610574565b005b61020f600480360381019061020a919061101a565b610612565b60405161021c91906117a6565b60405180910390f35b61023f600480360381019061023a919061110a565b61065a565b005b6102496107ea565b60405161025691906115ee565b60405180910390f35b610267610810565b6040516102749190611624565b60405180910390f35b610297600480360381019061029291906110ce565b6108a2565b6040516102a49190611609565b60405180910390f35b6102c760048036038101906102c291906110ce565b61098d565b6040516102d49190611609565b60405180910390f35b6102f760048036038101906102f29190611043565b6109ab565b60405161030491906117a6565b60405180910390f35b60606003805461031c9061194f565b80601f01602080910402602001604051908101604052809291908181526020018280546103489061194f565b80156103955780601f1061036a57610100808354040283529160200191610395565b820191906000526020600020905b81548152906001019060200180831161037857829003601f168201915b5050505050905090565b60006103b36103ac610a32565b8484610a3a565b6001905092915050565b6000600254905090565b60006103d4848484610c05565b6000600160008673ffffffffffffffffffffffffffffffffffffffff1673ffffffffffffffffffffffffffffffffffffffff168152602001908152602001600020600061041f610a32565b73ffffffffffffffffffffffffffffffffffffffff1673ffffffffffffffffffffffffffffffffffffffff1681526020019081526020016000205490508281101561049f576040517f08c379a0000000000000000000000000000000000000000000000000000000008152600401610496906116e6565b60405180910390fd5b6104b3856104ab610a32565b858403610a3a565b60019150509392505050565b60006012905090565b600061056a6104d5610a32565b8484600160006104e3610a32565b73ffffffffffffffffffffffffffffffffffffffff1673ffffffffffffffffffffffffffffffffffffffff16815260200190815260200160002060008873ffffffffffffffffffffffffffffffffffffffff1673ffffffffffffffffffffffffffffffffffffffff168152602001908152602001600020546105659190611821565b610a3a565b6001905092915050565b600560009054906101000a900473ffffffffffffffffffffffffffffffffffffffff1673ffffffffffffffffffffffffffffffffffffffff163373ffffffffffffffffffffffffffffffffffffffff1614610604576040517f08c379a00000000000000000000000000000000000000000000000000000000081526004016105fb906116c6565b60405180910390fd5b61060e8282610e86565b5050565b60008060008373ffffffffffffffffffffffffffffffffffffffff1673ffffffffffffffffffffffffffffffffffffffff168152602001908152602001600020549050919050565b6003821061069d576040517f08c379a000000000000000000000000000000000000000000000000000000000815260040161069490611726565b60405180910390fd5b6106a633610612565b8111156106e8576040517f08c379a00000000000000000000000000000000000000000000000000000000081526004016106df906116a6565b60405180910390fd5b6000806003600a436106fa9190611877565b404260405160200161070d9291906115c2565b6040516020818303038152906040528051906020012060001c6107309190611995565b90508084141561074357600291506107ab565b6000841480156107535750600281145b8061076a57506001841480156107695750600081145b5b8061078157506002841480156107805750600181145b5b1561079a57610791303385610c05565b600191506107aa565b6107a5333085610c05565b600091505b5b7f3c7e39d97acc50460dc049fadf714e615eb16076465b8663c519bc4e4ba96d9582826040516107dc9291906117dc565b60405180910390a150505050565b600560009054906101000a900473ffffffffffffffffffffffffffffffffffffffff1681565b60606004805461081f9061194f565b80601f016020809104026020016040519081016040528092919081815260200182805461084b9061194f565b80156108985780601f1061086d57610100808354040283529160200191610898565b820191906000526020600020905b81548152906001019060200180831161087b57829003601f168201915b5050505050905090565b600080600160006108b1610a32565b73ffffffffffffffffffffffffffffffffffffffff1673ffffffffffffffffffffffffffffffffffffffff16815260200190815260200160002060008573ffffffffffffffffffffffffffffffffffffffff1673ffffffffffffffffffffffffffffffffffffffff1681526020019081526020016000205490508281101561096e576040517f08c379a000000000000000000000000000000000000000000000000000000000815260040161096590611766565b60405180910390fd5b610982610979610a32565b85858403610a3a565b600191505092915050565b60006109a161099a610a32565b8484610c05565b6001905092915050565b6000600160008473ffffffffffffffffffffffffffffffffffffffff1673ffffffffffffffffffffffffffffffffffffffff16815260200190815260200160002060008373ffffffffffffffffffffffffffffffffffffffff1673ffffffffffffffffffffffffffffffffffffffff16815260200190815260200160002054905092915050565b600033905090565b600073ffffffffffffffffffffffffffffffffffffffff168373ffffffffffffffffffffffffffffffffffffffff161415610aaa576040517f08c379a0000000000000000000000000000000000000000000000000000000008152600401610aa190611746565b60405180910390fd5b600073ffffffffffffffffffffffffffffffffffffffff168273ffffffffffffffffffffffffffffffffffffffff161415610b1a576040517f08c379a0000000000000000000000000000000000000000000000000000000008152600401610b1190611666565b60405180910390fd5b80600160008573ffffffffffffffffffffffffffffffffffffffff1673ffffffffffffffffffffffffffffffffffffffff16815260200190815260200160002060008473ffffffffffffffffffffffffffffffffffffffff1673ffffffffffffffffffffffffffffffffffffffff168152602001908152602001600020819055508173ffffffffffffffffffffffffffffffffffffffff168373ffffffffffffffffffffffffffffffffffffffff167f8c5be1e5ebec7d5bd14f71427d1e84f3dd0314c0f7b2291e5b200ac8c7c3b92583604051610bf891906117a6565b60405180910390a3505050565b600073ffffffffffffffffffffffffffffffffffffffff168373ffffffffffffffffffffffffffffffffffffffff161415610c75576040517f08c379a0000000000000000000000000000000000000000000000000000000008152600401610c6c90611706565b60405180910390fd5b600073ffffffffffffffffffffffffffffffffffffffff168273ffffffffffffffffffffffffffffffffffffffff161415610ce5576040517f08c379a0000000000000000000000000000000000000000000000000000000008152600401610cdc90611646565b60405180910390fd5b610cf0838383610fe6565b60008060008573ffffffffffffffffffffffffffffffffffffffff1673ffffffffffffffffffffffffffffffffffffffff16815260200190815260200160002054905081811015610d76576040517f08c379a0000000000000000000000000000000000000000000000000000000008152600401610d6d90611686565b60405180910390fd5b8181036000808673ffffffffffffffffffffffffffffffffffffffff1673ffffffffffffffffffffffffffffffffffffffff16815260200190815260200160002081905550816000808573ffffffffffffffffffffffffffffffffffffffff1673ffffffffffffffffffffffffffffffffffffffff1681526020019081526020016000206000828254610e099190611821565b925050819055508273ffffffffffffffffffffffffffffffffffffffff168473ffffffffffffffffffffffffffffffffffffffff167fddf252ad1be2c89b69c2b068fc378daa952ba7f163c4a11628f55a4df523b3ef84604051610e6d91906117a6565b60405180910390a3610e80848484610feb565b50505050565b600073ffffffffffffffffffffffffffffffffffffffff168273ffffffffffffffffffffffffffffffffffffffff161415610ef6576040517f08c379a0000000000000000000000000000000000000000000000000000000008152600401610eed90611786565b60405180910390fd5b610f0260008383610fe6565b8060026000828254610f149190611821565b92505081905550806000808473ffffffffffffffffffffffffffffffffffffffff1673ffffffffffffffffffffffffffffffffffffffff1681526020019081526020016000206000828254610f699190611821565b925050819055508173ffffffffffffffffffffffffffffffffffffffff16600073ffffffffffffffffffffffffffffffffffffffff167fddf252ad1be2c89b69c2b068fc378daa952ba7f163c4a11628f55a4df523b3ef83604051610fce91906117a6565b60405180910390a3610fe260008383610feb565b5050565b505050565b505050565b600081359050610fff81611a64565b92915050565b60008135905061101481611a7b565b92915050565b60006020828403121561102c57600080fd5b600061103a84828501610ff0565b91505092915050565b6000806040838503121561105657600080fd5b600061106485828601610ff0565b925050602061107585828601610ff0565b9150509250929050565b60008060006060848603121561109457600080fd5b60006110a286828701610ff0565b93505060206110b386828701610ff0565b92505060406110c486828701611005565b9150509250925092565b600080604083850312156110e157600080fd5b60006110ef85828601610ff0565b925050602061110085828601611005565b9150509250929050565b6000806040838503121561111d57600080fd5b600061112b85828601611005565b925050602061113c85828601611005565b9150509250929050565b61114f816118ab565b82525050565b61115e816118bd565b82525050565b611175611170826118c9565b611981565b82525050565b600061118682611805565b6111908185611810565b93506111a081856020860161191c565b6111a981611a53565b840191505092915050565b60006111c1602383611810565b91507f45524332303a207472616e7366657220746f20746865207a65726f206164647260008301527f65737300000000000000000000000000000000000000000000000000000000006020830152604082019050919050565b6000611227602283611810565b91507f45524332303a20617070726f766520746f20746865207a65726f20616464726560008301527f73730000000000000000000000000000000000000000000000000000000000006020830152604082019050919050565b600061128d602683611810565b91507f45524332303a207472616e7366657220616d6f756e742065786365656473206260008301527f616c616e636500000000000000000000000000000000000000000000000000006020830152604082019050919050565b60006112f3601283611810565b91507f6e6f7420656e6f7567682062616c616e636500000000000000000000000000006000830152602082019050919050565b6000611333601383611810565b91507f6f6e6c79206f776e65722063616e206d696e74000000000000000000000000006000830152602082019050919050565b6000611373602883611810565b91507f45524332303a207472616e7366657220616d6f756e742065786365656473206160008301527f6c6c6f77616e63650000000000000000000000000000000000000000000000006020830152604082019050919050565b60006113d9602583611810565b91507f45524332303a207472616e736665722066726f6d20746865207a65726f20616460008301527f64726573730000000000000000000000000000000000000000000000000000006020830152604082019050919050565b600061143f601483611810565b91507f6e6f742061206c656769626c652063686f6963650000000000000000000000006000830152602082019050919050565b600061147f602483611810565b91507f45524332303a20617070726f76652066726f6d20746865207a65726f2061646460008301527f72657373000000000000000000000000000000000000000000000000000000006020830152604082019050919050565b60006114e5602583611810565b91507f45524332303a2064656372656173656420616c6c6f77616e63652062656c6f7760008301527f207a65726f0000000000000000000000000000000000000000000000000000006020830152604082019050919050565b600061154b601f83611810565b91507f45524332303a206d696e7420746f20746865207a65726f2061646472657373006000830152602082019050919050565b611587816118f3565b82525050565b61159e611599826118f3565b61198b565b82525050565b6115ad8161190a565b82525050565b6115bc816118fd565b82525050565b60006115ce8285611164565b6020820191506115de828461158d565b6020820191508190509392505050565b60006020820190506116036000830184611146565b92915050565b600060208201905061161e6000830184611155565b92915050565b6000602082019050818103600083015261163e818461117b565b905092915050565b6000602082019050818103600083015261165f816111b4565b9050919050565b6000602082019050818103600083015261167f8161121a565b9050919050565b6000602082019050818103600083015261169f81611280565b9050919050565b600060208201905081810360008301526116bf816112e6565b9050919050565b600060208201905081810360008301526116df81611326565b9050919050565b600060208201905081810360008301526116ff81611366565b9050919050565b6000602082019050818103600083015261171f816113cc565b9050919050565b6000602082019050818103600083015261173f81611432565b9050919050565b6000602082019050818103600083015261175f81611472565b9050919050565b6000602082019050818103600083015261177f816114d8565b9050919050565b6000602082019050818103600083015261179f8161153e565b9050919050565b60006020820190506117bb600083018461157e565b92915050565b60006020820190506117d660008301846115b3565b92915050565b60006040820190506117f160008301856115a4565b6117fe602083018461157e565b9392505050565b600081519050919050565b600082825260208201905092915050565b600061182c826118f3565b9150611837836118f3565b9250827fffffffffffffffffffffffffffffffffffffffffffffffffffffffffffffffff0382111561186c5761186b6119c6565b5b828201905092915050565b6000611882826118f3565b915061188d836118f3565b9250828210156118a05761189f6119c6565b5b828203905092915050565b60006118b6826118d3565b9050919050565b60008115159050919050565b6000819050919050565b600073ffffffffffffffffffffffffffffffffffffffff82169050919050565b6000819050919050565b600060ff82169050919050565b6000611915826118fd565b9050919050565b60005b8381101561193a57808201518184015260208101905061191f565b83811115611949576000848401525b50505050565b6000600282049050600182168061196757607f821691505b6020821081141561197b5761197a611a24565b5b50919050565b6000819050919050565b6000819050919050565b60006119a0826118f3565b91506119ab836118f3565b9250826119bb576119ba6119f5565b5b828206905092915050565b7f4e487b7100000000000000000000000000000000000000000000000000000000600052601160045260246000fd5b7f4e487b7100000000000000000000000000000000000000000000000000000000600052601260045260246000fd5b7f4e487b7100000000000000000000000000000000000000000000000000000000600052602260045260246000fd5b6000601f19601f8301169050919050565b611a6d816118ab565b8114611a7857600080fd5b50565b611a84816118f3565b8114611a8f57600080fd5b5056fea2646970667358221220cd6f8b6e527cba39a0fba7c56127b54c36d9220cab3ee7d4a9fe9618f67eb5d764736f6c63430008000033",
  "immutableReferences": {},
  "source": "pragma solidity ^0.8.0;\nimport \"@openzeppelin/contracts/token/ERC20/ERC20.sol\";\ncontract RPS_ERC20 is ERC20{\n    address public owner;\nconstructor() public ERC20(\"RPS\", \"RPS\") {\n    _mint(address(this),1000);\n    owner = msg.sender;\n}\n\nevent playResult(uint pResult, uint contractChoice);\nmodifier onlyOwner() {\n    require(msg.sender==owner, \"only owner can mint\");_;\n}\nfunction mint(address receiver, uint amount) public onlyOwner {\n    _mint(receiver,amount);\n}\nfunction play(uint userChoice, uint amount) public {    \n    require(userChoice<3, \"not a legible choice\");\n    require(amount<=balanceOf(msg.sender),\"not enough balance\");\n    uint8 result;\n    uint contractChoice = uint(keccak256(abi.encodePacked(blockhash(block.number-10),block.timestamp)))%3;\n    if(userChoice == contractChoice) {\n        result = 2;\n    }\n    else if((userChoice == 0 && contractChoice == 2) || (userChoice == 1 && contractChoice == 0) || (userChoice == 2 && contractChoice == 1))\n    {         \n        _transfer(address(this),msg.sender,amount);\n       result = 1;\n    }\n    else {\n        _transfer(msg.sender,address(this),amount);\n        result = 0;\n    }\n    emit playResult(result,contractChoice);\n}\n}",
  "sourcePath": "/home/mallikarjun/RPS_ERC20/src/contracts/RPS_ERC20.sol",
  "compiler": {
    "name": "solc",
    "version": "0.8.0+commit.c7dfd78e.Emscripten.clang"
  },
  "schemaVersion": "3.4.3",
  "updatedAt": "2021-09-18T09:43:12.211Z",
  "networkType": "ethereum",
  "devdoc": {
    "kind": "dev",
    "methods": {
      "allowance(address,address)": {
        "details": "See {IERC20-allowance}."
      },
      "approve(address,uint256)": {
        "details": "See {IERC20-approve}. Requirements: - `spender` cannot be the zero address."
      },
      "balanceOf(address)": {
        "details": "See {IERC20-balanceOf}."
      },
      "decimals()": {
        "details": "Returns the number of decimals used to get its user representation. For example, if `decimals` equals `2`, a balance of `505` tokens should be displayed to a user as `5.05` (`505 / 10 ** 2`). Tokens usually opt for a value of 18, imitating the relationship between Ether and Wei. This is the value {ERC20} uses, unless this function is overridden; NOTE: This information is only used for _display_ purposes: it in no way affects any of the arithmetic of the contract, including {IERC20-balanceOf} and {IERC20-transfer}."
      },
      "decreaseAllowance(address,uint256)": {
        "details": "Atomically decreases the allowance granted to `spender` by the caller. This is an alternative to {approve} that can be used as a mitigation for problems described in {IERC20-approve}. Emits an {Approval} event indicating the updated allowance. Requirements: - `spender` cannot be the zero address. - `spender` must have allowance for the caller of at least `subtractedValue`."
      },
      "increaseAllowance(address,uint256)": {
        "details": "Atomically increases the allowance granted to `spender` by the caller. This is an alternative to {approve} that can be used as a mitigation for problems described in {IERC20-approve}. Emits an {Approval} event indicating the updated allowance. Requirements: - `spender` cannot be the zero address."
      },
      "name()": {
        "details": "Returns the name of the token."
      },
      "symbol()": {
        "details": "Returns the symbol of the token, usually a shorter version of the name."
      },
      "totalSupply()": {
        "details": "See {IERC20-totalSupply}."
      },
      "transfer(address,uint256)": {
        "details": "See {IERC20-transfer}. Requirements: - `recipient` cannot be the zero address. - the caller must have a balance of at least `amount`."
      },
      "transferFrom(address,address,uint256)": {
        "details": "See {IERC20-transferFrom}. Emits an {Approval} event indicating the updated allowance. This is not required by the EIP. See the note at the beginning of {ERC20}. Requirements: - `sender` and `recipient` cannot be the zero address. - `sender` must have a balance of at least `amount`. - the caller must have allowance for ``sender``'s tokens of at least `amount`."
      }
    },
    "version": 1
  },
  "userdoc": {
    "kind": "user",
    "methods": {},
    "version": 1
  }
}