{
  "contractName": "RPS_ERC20",
  "abi": [
    {
      "inputs": [],
      "stateMutability": "nonpayable",
      "type": "constructor"
    },
    {
      "anonymous": false,
      "inputs": [
        {
          "indexed": true,
          "internalType": "address",
          "name": "owner",
          "type": "address"
        },
        {
          "indexed": true,
          "internalType": "address",
          "name": "spender",
          "type": "address"
        },
        {
          "indexed": false,
          "internalType": "uint256",
          "name": "value",
          "type": "uint256"
        }
      ],
      "name": "Approval",
      "type": "event"
    },
    {
      "anonymous": false,
      "inputs": [
        {
          "indexed": true,
          "internalType": "address",
          "name": "from",
          "type": "address"
        },
        {
          "indexed": true,
          "internalType": "address",
          "name": "to",
          "type": "address"
        },
        {
          "indexed": false,
          "internalType": "uint256",
          "name": "value",
          "type": "uint256"
        }
      ],
      "name": "Transfer",
      "type": "event"
    },
    {
      "anonymous": false,
      "inputs": [
        {
          "indexed": false,
          "internalType": "uint256",
          "name": "pResult",
          "type": "uint256"
        },
        {
          "indexed": false,
          "internalType": "uint256",
          "name": "contractChoice",
          "type": "uint256"
        }
      ],
      "name": "playResult",
      "type": "event"
    },
    {
      "inputs": [
        {
          "internalType": "address",
          "name": "owner",
          "type": "address"
        },
        {
          "internalType": "address",
          "name": "spender",
          "type": "address"
        }
      ],
      "name": "allowance",
      "outputs": [
        {
          "internalType": "uint256",
          "name": "",
          "type": "uint256"
        }
      ],
      "stateMutability": "view",
      "type": "function"
    },
    {
      "inputs": [
        {
          "internalType": "address",
          "name": "spender",
          "type": "address"
        },
        {
          "internalType": "uint256",
          "name": "amount",
          "type": "uint256"
        }
      ],
      "name": "approve",
      "outputs": [
        {
          "internalType": "bool",
          "name": "",
          "type": "bool"
        }
      ],
      "stateMutability": "nonpayable",
      "type": "function"
    },
    {
      "inputs": [
        {
          "internalType": "address",
          "name": "account",
          "type": "address"
        }
      ],
      "name": "balanceOf",
      "outputs": [
        {
          "internalType": "uint256",
          "name": "",
          "type": "uint256"
        }
      ],
      "stateMutability": "view",
      "type": "function"
    },
    {
      "inputs": [],
      "name": "decimals",
      "outputs": [
        {
          "internalType": "uint8",
          "name": "",
          "type": "uint8"
        }
      ],
      "stateMutability": "view",
      "type": "function"
    },
    {
      "inputs": [
        {
          "internalType": "address",
          "name": "spender",
          "type": "address"
        },
        {
          "internalType": "uint256",
          "name": "subtractedValue",
          "type": "uint256"
        }
      ],
      "name": "decreaseAllowance",
      "outputs": [
        {
          "internalType": "bool",
          "name": "",
          "type": "bool"
        }
      ],
      "stateMutability": "nonpayable",
      "type": "function"
    },
    {
      "inputs": [
        {
          "internalType": "address",
          "name": "spender",
          "type": "address"
        },
        {
          "internalType": "uint256",
          "name": "addedValue",
          "type": "uint256"
        }
      ],
      "name": "increaseAllowance",
      "outputs": [
        {
          "internalType": "bool",
          "name": "",
          "type": "bool"
        }
      ],
      "stateMutability": "nonpayable",
      "type": "function"
    },
    {
      "inputs": [],
      "name": "name",
      "outputs": [
        {
          "internalType": "string",
          "name": "",
          "type": "string"
        }
      ],
      "stateMutability": "view",
      "type": "function"
    },
    {
      "inputs": [],
      "name": "symbol",
      "outputs": [
        {
          "internalType": "string",
          "name": "",
          "type": "string"
        }
      ],
      "stateMutability": "view",
      "type": "function"
    },
    {
      "inputs": [],
      "name": "totalSupply",
      "outputs": [
        {
          "internalType": "uint256",
          "name": "",
          "type": "uint256"
        }
      ],
      "stateMutability": "view",
      "type": "function"
    },
    {
      "inputs": [
        {
          "internalType": "address",
          "name": "recipient",
          "type": "address"
        },
        {
          "internalType": "uint256",
          "name": "amount",
          "type": "uint256"
        }
      ],
      "name": "transfer",
      "outputs": [
        {
          "internalType": "bool",
          "name": "",
          "type": "bool"
        }
      ],
      "stateMutability": "nonpayable",
      "type": "function"
    },
    {
      "inputs": [
        {
          "internalType": "address",
          "name": "sender",
          "type": "address"
        },
        {
          "internalType": "address",
          "name": "recipient",
          "type": "address"
        },
        {
          "internalType": "uint256",
          "name": "amount",
          "type": "uint256"
        }
      ],
      "name": "transferFrom",
      "outputs": [
        {
          "internalType": "bool",
          "name": "",
          "type": "bool"
        }
      ],
      "stateMutability": "nonpayable",
      "type": "function"
    },
    {
      "inputs": [
        {
          "internalType": "uint256",
          "name": "amount",
          "type": "uint256"
        }
      ],
      "name": "mint",
      "outputs": [],
      "stateMutability": "nonpayable",
      "type": "function"
    },
    {
      "inputs": [
        {
          "internalType": "uint256",
          "name": "userChoice",
          "type": "uint256"
        },
        {
          "internalType": "uint256",
          "name": "amount",
          "type": "uint256"
        }
      ],
      "name": "play",
      "outputs": [],
      "stateMutability": "nonpayable",
      "type": "function"
    }
  ],
  "bytecode": "0x60806040523480156200001157600080fd5b506040518060400160405280600381526020017f52505300000000000000000000000000000000000000000000000000000000008152506040518060400160405280600381526020017f525053000000000000000000000000000000000000000000000000000000000081525081600390805190602001906200009692919062000290565b508060049080519060200190620000af92919062000290565b505050620000c6306103e86200010d60201b60201c565b33600560006101000a81548173ffffffffffffffffffffffffffffffffffffffff021916908373ffffffffffffffffffffffffffffffffffffffff160217905550620004de565b600073ffffffffffffffffffffffffffffffffffffffff168273ffffffffffffffffffffffffffffffffffffffff16141562000180576040517f08c379a0000000000000000000000000000000000000000000000000000000008152600401620001779062000393565b60405180910390fd5b62000194600083836200028660201b60201c565b8060026000828254620001a89190620003e3565b92505081905550806000808473ffffffffffffffffffffffffffffffffffffffff1673ffffffffffffffffffffffffffffffffffffffff1681526020019081526020016000206000828254620001ff9190620003e3565b925050819055508173ffffffffffffffffffffffffffffffffffffffff16600073ffffffffffffffffffffffffffffffffffffffff167fddf252ad1be2c89b69c2b068fc378daa952ba7f163c4a11628f55a4df523b3ef83604051620002669190620003b5565b60405180910390a362000282600083836200028b60201b60201c565b5050565b505050565b505050565b8280546200029e906200044a565b90600052602060002090601f016020900481019282620002c257600085556200030e565b82601f10620002dd57805160ff19168380011785556200030e565b828001600101855582156200030e579182015b828111156200030d578251825591602001919060010190620002f0565b5b5090506200031d919062000321565b5090565b5b808211156200033c57600081600090555060010162000322565b5090565b60006200034f601f83620003d2565b91507f45524332303a206d696e7420746f20746865207a65726f2061646472657373006000830152602082019050919050565b6200038d8162000440565b82525050565b60006020820190508181036000830152620003ae8162000340565b9050919050565b6000602082019050620003cc600083018462000382565b92915050565b600082825260208201905092915050565b6000620003f08262000440565b9150620003fd8362000440565b9250827fffffffffffffffffffffffffffffffffffffffffffffffffffffffffffffffff0382111562000435576200043462000480565b5b828201905092915050565b6000819050919050565b600060028204905060018216806200046357607f821691505b602082108114156200047a5762000479620004af565b5b50919050565b7f4e487b7100000000000000000000000000000000000000000000000000000000600052601160045260246000fd5b7f4e487b7100000000000000000000000000000000000000000000000000000000600052602260045260246000fd5b611a6780620004ee6000396000f3fe608060405234801561001057600080fd5b50600436106100cf5760003560e01c806370a082311161008c578063a0712d6811610066578063a0712d6814610228578063a457c2d714610244578063a9059cbb14610274578063dd62ed3e146102a4576100cf565b806370a08231146101be5780637bc49a95146101ee57806395d89b411461020a576100cf565b806306fdde03146100d4578063095ea7b3146100f257806318160ddd1461012257806323b872dd14610140578063313ce56714610170578063395093511461018e575b600080fd5b6100dc6102d4565b6040516100e991906115c3565b60405180910390f35b61010c6004803603810190610107919061106e565b610366565b60405161011991906115a8565b60405180910390f35b61012a610384565b6040516101379190611745565b60405180910390f35b61015a6004803603810190610155919061101f565b61038e565b60405161016791906115a8565b60405180910390f35b610178610486565b6040516101859190611760565b60405180910390f35b6101a860048036038101906101a3919061106e565b61048f565b6040516101b591906115a8565b60405180910390f35b6101d860048036038101906101d39190610fba565b61053b565b6040516101e59190611745565b60405180910390f35b610208600480360381019061020391906110d3565b610583565b005b610212610713565b60405161021f91906115c3565b60405180910390f35b610242600480360381019061023d91906110aa565b6107a5565b005b61025e6004803603810190610259919061106e565b610842565b60405161026b91906115a8565b60405180910390f35b61028e6004803603810190610289919061106e565b61092d565b60405161029b91906115a8565b60405180910390f35b6102be60048036038101906102b99190610fe3565b61094b565b6040516102cb9190611745565b60405180910390f35b6060600380546102e3906118ee565b80601f016020809104026020016040519081016040528092919081815260200182805461030f906118ee565b801561035c5780601f106103315761010080835404028352916020019161035c565b820191906000526020600020905b81548152906001019060200180831161033f57829003601f168201915b5050505050905090565b600061037a6103736109d2565b84846109da565b6001905092915050565b6000600254905090565b600061039b848484610ba5565b6000600160008673ffffffffffffffffffffffffffffffffffffffff1673ffffffffffffffffffffffffffffffffffffffff16815260200190815260200160002060006103e66109d2565b73ffffffffffffffffffffffffffffffffffffffff1673ffffffffffffffffffffffffffffffffffffffff16815260200190815260200160002054905082811015610466576040517f08c379a000000000000000000000000000000000000000000000000000000000815260040161045d90611685565b60405180910390fd5b61047a856104726109d2565b8584036109da565b60019150509392505050565b60006012905090565b600061053161049c6109d2565b8484600160006104aa6109d2565b73ffffffffffffffffffffffffffffffffffffffff1673ffffffffffffffffffffffffffffffffffffffff16815260200190815260200160002060008873ffffffffffffffffffffffffffffffffffffffff1673ffffffffffffffffffffffffffffffffffffffff1681526020019081526020016000205461052c91906117c0565b6109da565b6001905092915050565b60008060008373ffffffffffffffffffffffffffffffffffffffff1673ffffffffffffffffffffffffffffffffffffffff168152602001908152602001600020549050919050565b600382106105c6576040517f08c379a00000000000000000000000000000000000000000000000000000000081526004016105bd906116c5565b60405180910390fd5b6105cf3361053b565b811115610611576040517f08c379a000000000000000000000000000000000000000000000000000000000815260040161060890611645565b60405180910390fd5b6000806003600a436106239190611816565b404260405160200161063692919061157c565b6040516020818303038152906040528051906020012060001c6106599190611934565b90508084141561066c57600291506106d4565b60008414801561067c5750600281145b8061069357506001841480156106925750600081145b5b806106aa57506002841480156106a95750600181145b5b156106c3576106ba303385610ba5565b600191506106d3565b6106ce333085610ba5565b600091505b5b7f3c7e39d97acc50460dc049fadf714e615eb16076465b8663c519bc4e4ba96d95828260405161070592919061177b565b60405180910390a150505050565b606060048054610722906118ee565b80601f016020809104026020016040519081016040528092919081815260200182805461074e906118ee565b801561079b5780601f106107705761010080835404028352916020019161079b565b820191906000526020600020905b81548152906001019060200180831161077e57829003601f168201915b5050505050905090565b600560009054906101000a900473ffffffffffffffffffffffffffffffffffffffff1673ffffffffffffffffffffffffffffffffffffffff163373ffffffffffffffffffffffffffffffffffffffff1614610835576040517f08c379a000000000000000000000000000000000000000000000000000000000815260040161082c90611665565b60405180910390fd5b61083f3382610e26565b50565b600080600160006108516109d2565b73ffffffffffffffffffffffffffffffffffffffff1673ffffffffffffffffffffffffffffffffffffffff16815260200190815260200160002060008573ffffffffffffffffffffffffffffffffffffffff1673ffffffffffffffffffffffffffffffffffffffff1681526020019081526020016000205490508281101561090e576040517f08c379a000000000000000000000000000000000000000000000000000000000815260040161090590611705565b60405180910390fd5b6109226109196109d2565b858584036109da565b600191505092915050565b600061094161093a6109d2565b8484610ba5565b6001905092915050565b6000600160008473ffffffffffffffffffffffffffffffffffffffff1673ffffffffffffffffffffffffffffffffffffffff16815260200190815260200160002060008373ffffffffffffffffffffffffffffffffffffffff1673ffffffffffffffffffffffffffffffffffffffff16815260200190815260200160002054905092915050565b600033905090565b600073ffffffffffffffffffffffffffffffffffffffff168373ffffffffffffffffffffffffffffffffffffffff161415610a4a576040517f08c379a0000000000000000000000000000000000000000000000000000000008152600401610a41906116e5565b60405180910390fd5b600073ffffffffffffffffffffffffffffffffffffffff168273ffffffffffffffffffffffffffffffffffffffff161415610aba576040517f08c379a0000000000000000000000000000000000000000000000000000000008152600401610ab190611605565b60405180910390fd5b80600160008573ffffffffffffffffffffffffffffffffffffffff1673ffffffffffffffffffffffffffffffffffffffff16815260200190815260200160002060008473ffffffffffffffffffffffffffffffffffffffff1673ffffffffffffffffffffffffffffffffffffffff168152602001908152602001600020819055508173ffffffffffffffffffffffffffffffffffffffff168373ffffffffffffffffffffffffffffffffffffffff167f8c5be1e5ebec7d5bd14f71427d1e84f3dd0314c0f7b2291e5b200ac8c7c3b92583604051610b989190611745565b60405180910390a3505050565b600073ffffffffffffffffffffffffffffffffffffffff168373ffffffffffffffffffffffffffffffffffffffff161415610c15576040517f08c379a0000000000000000000000000000000000000000000000000000000008152600401610c0c906116a5565b60405180910390fd5b600073ffffffffffffffffffffffffffffffffffffffff168273ffffffffffffffffffffffffffffffffffffffff161415610c85576040517f08c379a0000000000000000000000000000000000000000000000000000000008152600401610c7c906115e5565b60405180910390fd5b610c90838383610f86565b60008060008573ffffffffffffffffffffffffffffffffffffffff1673ffffffffffffffffffffffffffffffffffffffff16815260200190815260200160002054905081811015610d16576040517f08c379a0000000000000000000000000000000000000000000000000000000008152600401610d0d90611625565b60405180910390fd5b8181036000808673ffffffffffffffffffffffffffffffffffffffff1673ffffffffffffffffffffffffffffffffffffffff16815260200190815260200160002081905550816000808573ffffffffffffffffffffffffffffffffffffffff1673ffffffffffffffffffffffffffffffffffffffff1681526020019081526020016000206000828254610da991906117c0565b925050819055508273ffffffffffffffffffffffffffffffffffffffff168473ffffffffffffffffffffffffffffffffffffffff167fddf252ad1be2c89b69c2b068fc378daa952ba7f163c4a11628f55a4df523b3ef84604051610e0d9190611745565b60405180910390a3610e20848484610f8b565b50505050565b600073ffffffffffffffffffffffffffffffffffffffff168273ffffffffffffffffffffffffffffffffffffffff161415610e96576040517f08c379a0000000000000000000000000000000000000000000000000000000008152600401610e8d90611725565b60405180910390fd5b610ea260008383610f86565b8060026000828254610eb491906117c0565b92505081905550806000808473ffffffffffffffffffffffffffffffffffffffff1673ffffffffffffffffffffffffffffffffffffffff1681526020019081526020016000206000828254610f0991906117c0565b925050819055508173ffffffffffffffffffffffffffffffffffffffff16600073ffffffffffffffffffffffffffffffffffffffff167fddf252ad1be2c89b69c2b068fc378daa952ba7f163c4a11628f55a4df523b3ef83604051610f6e9190611745565b60405180910390a3610f8260008383610f8b565b5050565b505050565b505050565b600081359050610f9f81611a03565b92915050565b600081359050610fb481611a1a565b92915050565b600060208284031215610fcc57600080fd5b6000610fda84828501610f90565b91505092915050565b60008060408385031215610ff657600080fd5b600061100485828601610f90565b925050602061101585828601610f90565b9150509250929050565b60008060006060848603121561103457600080fd5b600061104286828701610f90565b935050602061105386828701610f90565b925050604061106486828701610fa5565b9150509250925092565b6000806040838503121561108157600080fd5b600061108f85828601610f90565b92505060206110a085828601610fa5565b9150509250929050565b6000602082840312156110bc57600080fd5b60006110ca84828501610fa5565b91505092915050565b600080604083850312156110e657600080fd5b60006110f485828601610fa5565b925050602061110585828601610fa5565b9150509250929050565b6111188161185c565b82525050565b61112f61112a82611868565b611920565b82525050565b6000611140826117a4565b61114a81856117af565b935061115a8185602086016118bb565b611163816119f2565b840191505092915050565b600061117b6023836117af565b91507f45524332303a207472616e7366657220746f20746865207a65726f206164647260008301527f65737300000000000000000000000000000000000000000000000000000000006020830152604082019050919050565b60006111e16022836117af565b91507f45524332303a20617070726f766520746f20746865207a65726f20616464726560008301527f73730000000000000000000000000000000000000000000000000000000000006020830152604082019050919050565b60006112476026836117af565b91507f45524332303a207472616e7366657220616d6f756e742065786365656473206260008301527f616c616e636500000000000000000000000000000000000000000000000000006020830152604082019050919050565b60006112ad6012836117af565b91507f6e6f7420656e6f7567682062616c616e636500000000000000000000000000006000830152602082019050919050565b60006112ed6013836117af565b91507f6f6e6c79206f776e65722063616e206d696e74000000000000000000000000006000830152602082019050919050565b600061132d6028836117af565b91507f45524332303a207472616e7366657220616d6f756e742065786365656473206160008301527f6c6c6f77616e63650000000000000000000000000000000000000000000000006020830152604082019050919050565b60006113936025836117af565b91507f45524332303a207472616e736665722066726f6d20746865207a65726f20616460008301527f64726573730000000000000000000000000000000000000000000000000000006020830152604082019050919050565b60006113f96014836117af565b91507f6e6f742061206c656769626c652063686f6963650000000000000000000000006000830152602082019050919050565b60006114396024836117af565b91507f45524332303a20617070726f76652066726f6d20746865207a65726f2061646460008301527f72657373000000000000000000000000000000000000000000000000000000006020830152604082019050919050565b600061149f6025836117af565b91507f45524332303a2064656372656173656420616c6c6f77616e63652062656c6f7760008301527f207a65726f0000000000000000000000000000000000000000000000000000006020830152604082019050919050565b6000611505601f836117af565b91507f45524332303a206d696e7420746f20746865207a65726f2061646472657373006000830152602082019050919050565b61154181611892565b82525050565b61155861155382611892565b61192a565b82525050565b611567816118a9565b82525050565b6115768161189c565b82525050565b6000611588828561111e565b6020820191506115988284611547565b6020820191508190509392505050565b60006020820190506115bd600083018461110f565b92915050565b600060208201905081810360008301526115dd8184611135565b905092915050565b600060208201905081810360008301526115fe8161116e565b9050919050565b6000602082019050818103600083015261161e816111d4565b9050919050565b6000602082019050818103600083015261163e8161123a565b9050919050565b6000602082019050818103600083015261165e816112a0565b9050919050565b6000602082019050818103600083015261167e816112e0565b9050919050565b6000602082019050818103600083015261169e81611320565b9050919050565b600060208201905081810360008301526116be81611386565b9050919050565b600060208201905081810360008301526116de816113ec565b9050919050565b600060208201905081810360008301526116fe8161142c565b9050919050565b6000602082019050818103600083015261171e81611492565b9050919050565b6000602082019050818103600083015261173e816114f8565b9050919050565b600060208201905061175a6000830184611538565b92915050565b6000602082019050611775600083018461156d565b92915050565b6000604082019050611790600083018561155e565b61179d6020830184611538565b9392505050565b600081519050919050565b600082825260208201905092915050565b60006117cb82611892565b91506117d683611892565b9250827fffffffffffffffffffffffffffffffffffffffffffffffffffffffffffffffff0382111561180b5761180a611965565b5b828201905092915050565b600061182182611892565b915061182c83611892565b92508282101561183f5761183e611965565b5b828203905092915050565b600061185582611872565b9050919050565b60008115159050919050565b6000819050919050565b600073ffffffffffffffffffffffffffffffffffffffff82169050919050565b6000819050919050565b600060ff82169050919050565b60006118b48261189c565b9050919050565b60005b838110156118d95780820151818401526020810190506118be565b838111156118e8576000848401525b50505050565b6000600282049050600182168061190657607f821691505b6020821081141561191a576119196119c3565b5b50919050565b6000819050919050565b6000819050919050565b600061193f82611892565b915061194a83611892565b92508261195a57611959611994565b5b828206905092915050565b7f4e487b7100000000000000000000000000000000000000000000000000000000600052601160045260246000fd5b7f4e487b7100000000000000000000000000000000000000000000000000000000600052601260045260246000fd5b7f4e487b7100000000000000000000000000000000000000000000000000000000600052602260045260246000fd5b6000601f19601f8301169050919050565b611a0c8161184a565b8114611a1757600080fd5b50565b611a2381611892565b8114611a2e57600080fd5b5056fea2646970667358221220dad9fd7c9b65e5fd256db6aaafdd56dc0988f100e589f3c29e21e0db3fe4a34d64736f6c63430008000033",
  "immutableReferences": {},
  "source": "pragma solidity ^0.8.0;\nimport \"@openzeppelin/contracts/token/ERC20/ERC20.sol\";\ncontract RPS_ERC20 is ERC20{\n    address owner;\nconstructor() public ERC20(\"RPS\", \"RPS\") {\n    _mint(address(this),1000);\n    owner = msg.sender;\n}\n\nevent playResult(uint pResult, uint contractChoice);\nmodifier onlyOwner() {\n    require(msg.sender==owner, \"only owner can mint\");_;\n}\nfunction mint(uint amount) public onlyOwner {\n    _mint(msg.sender,amount);\n}\nfunction play(uint userChoice, uint amount) public {    \n    require(userChoice<3, \"not a legible choice\");\n    require(amount<=balanceOf(msg.sender),\"not enough balance\");\n    uint8 result;\n    uint contractChoice = uint(keccak256(abi.encodePacked(blockhash(block.number-10),block.timestamp)))%3;\n    if(userChoice == contractChoice) {\n        result = 2;\n    }\n    else if((userChoice == 0 && contractChoice == 2) || (userChoice == 1 && contractChoice == 0) || (userChoice == 2 && contractChoice == 1))\n    {         \n        _transfer(address(this),msg.sender,amount);\n       result = 1;\n    }\n    else {\n        _transfer(msg.sender,address(this),amount);\n        result = 0;\n    }\n    emit playResult(result,contractChoice);\n}\n}",
  "sourcePath": "/home/mallikarjun/RPS_ERC20/src/contracts/RPS_ERC20.sol",
  "compiler": {
    "name": "solc",
    "version": "0.8.0+commit.c7dfd78e.Emscripten.clang"
  },
  "schemaVersion": "3.4.3",
  "updatedAt": "2021-09-14T09:59:26.305Z",
  "devdoc": {
    "kind": "dev",
    "methods": {
      "allowance(address,address)": {
        "details": "See {IERC20-allowance}."
      },
      "approve(address,uint256)": {
        "details": "See {IERC20-approve}. Requirements: - `spender` cannot be the zero address."
      },
      "balanceOf(address)": {
        "details": "See {IERC20-balanceOf}."
      },
      "decimals()": {
        "details": "Returns the number of decimals used to get its user representation. For example, if `decimals` equals `2`, a balance of `505` tokens should be displayed to a user as `5.05` (`505 / 10 ** 2`). Tokens usually opt for a value of 18, imitating the relationship between Ether and Wei. This is the value {ERC20} uses, unless this function is overridden; NOTE: This information is only used for _display_ purposes: it in no way affects any of the arithmetic of the contract, including {IERC20-balanceOf} and {IERC20-transfer}."
      },
      "decreaseAllowance(address,uint256)": {
        "details": "Atomically decreases the allowance granted to `spender` by the caller. This is an alternative to {approve} that can be used as a mitigation for problems described in {IERC20-approve}. Emits an {Approval} event indicating the updated allowance. Requirements: - `spender` cannot be the zero address. - `spender` must have allowance for the caller of at least `subtractedValue`."
      },
      "increaseAllowance(address,uint256)": {
        "details": "Atomically increases the allowance granted to `spender` by the caller. This is an alternative to {approve} that can be used as a mitigation for problems described in {IERC20-approve}. Emits an {Approval} event indicating the updated allowance. Requirements: - `spender` cannot be the zero address."
      },
      "name()": {
        "details": "Returns the name of the token."
      },
      "symbol()": {
        "details": "Returns the symbol of the token, usually a shorter version of the name."
      },
      "totalSupply()": {
        "details": "See {IERC20-totalSupply}."
      },
      "transfer(address,uint256)": {
        "details": "See {IERC20-transfer}. Requirements: - `recipient` cannot be the zero address. - the caller must have a balance of at least `amount`."
      },
      "transferFrom(address,address,uint256)": {
        "details": "See {IERC20-transferFrom}. Emits an {Approval} event indicating the updated allowance. This is not required by the EIP. See the note at the beginning of {ERC20}. Requirements: - `sender` and `recipient` cannot be the zero address. - `sender` must have a balance of at least `amount`. - the caller must have allowance for ``sender``'s tokens of at least `amount`."
      }
    },
    "version": 1
  },
  "userdoc": {
    "kind": "user",
    "methods": {},
    "version": 1
  }
}